{
  "_format": "hh-sol-artifact-1",
  "contractName": "TipJar",
  "sourceName": "contracts/TipJar.sol",
  "abi": [
    {
      "inputs": [],
      "stateMutability": "nonpayable",
      "type": "constructor"
    },
    {
      "anonymous": false,
      "inputs": [
        {
          "indexed": true,
          "internalType": "address",
          "name": "from",
          "type": "address"
        },
        {
          "indexed": false,
          "internalType": "string",
          "name": "message",
          "type": "string"
        },
        {
          "indexed": false,
          "internalType": "string",
          "name": "name",
          "type": "string"
        },
        {
          "indexed": false,
          "internalType": "uint256",
          "name": "amount",
          "type": "uint256"
        }
      ],
      "name": "NewTip",
      "type": "event"
    },
    {
      "anonymous": false,
      "inputs": [
        {
          "indexed": false,
          "internalType": "uint256",
          "name": "amount",
          "type": "uint256"
        }
      ],
      "name": "NewWithdraw",
      "type": "event"
    },
    {
      "inputs": [],
      "name": "getAllTips",
      "outputs": [
        {
          "components": [
            {
              "internalType": "address",
              "name": "sender",
              "type": "address"
            },
            {
              "internalType": "string",
              "name": "message",
              "type": "string"
            },
            {
              "internalType": "string",
              "name": "name",
              "type": "string"
            },
            {
              "internalType": "uint256",
              "name": "timestamp",
              "type": "uint256"
            },
            {
              "internalType": "uint256",
              "name": "amount",
              "type": "uint256"
            }
          ],
          "internalType": "struct TipJar.Tip[]",
          "name": "",
          "type": "tuple[]"
        }
      ],
      "stateMutability": "view",
      "type": "function"
    },
    {
      "inputs": [],
      "name": "owner",
      "outputs": [
        {
          "internalType": "address payable",
          "name": "",
          "type": "address"
        }
      ],
      "stateMutability": "view",
      "type": "function"
    },
    {
      "inputs": [
        {
          "internalType": "string",
          "name": "_message",
          "type": "string"
        },
        {
          "internalType": "string",
          "name": "_name",
          "type": "string"
        }
      ],
      "name": "sendTip",
      "outputs": [],
      "stateMutability": "payable",
      "type": "function"
    },
    {
      "inputs": [],
      "name": "totalTips",
      "outputs": [
        {
          "internalType": "uint256",
          "name": "",
          "type": "uint256"
        }
      ],
      "stateMutability": "view",
      "type": "function"
    },
    {
      "inputs": [],
      "name": "withdraw",
      "outputs": [],
      "stateMutability": "nonpayable",
      "type": "function"
    }
  ],
  "bytecode": "0x608060405234801561001057600080fd5b5033600160006101000a81548173ffffffffffffffffffffffffffffffffffffffff021916908373ffffffffffffffffffffffffffffffffffffffff16021790555061111f806100616000396000f3fe60806040526004361061004a5760003560e01c8063399ddbbd1461004f5780633ccfd60b1461007a57806354cafb04146100915780638da5cb5b146100ad578063990de8ae146100d8575b600080fd5b34801561005b57600080fd5b50610064610103565b60405161007191906108da565b60405180910390f35b34801561008657600080fd5b5061008f6102f0565b005b6100ab60048036038101906100a69190610a45565b6104cb565b005b3480156100b957600080fd5b506100c2610685565b6040516100cf9190610ade565b60405180910390f35b3480156100e457600080fd5b506100ed6106ab565b6040516100fa9190610b08565b60405180910390f35b60606002805480602002602001604051908101604052809291908181526020016000905b828210156102e757838290600052602060002090600502016040518060a00160405290816000820160009054906101000a900473ffffffffffffffffffffffffffffffffffffffff1673ffffffffffffffffffffffffffffffffffffffff1673ffffffffffffffffffffffffffffffffffffffff1681526020016001820180546101b090610b52565b80601f01602080910402602001604051908101604052809291908181526020018280546101dc90610b52565b80156102295780601f106101fe57610100808354040283529160200191610229565b820191906000526020600020905b81548152906001019060200180831161020c57829003601f168201915b5050505050815260200160028201805461024290610b52565b80601f016020809104026020016040519081016040528092919081815260200182805461026e90610b52565b80156102bb5780601f10610290576101008083540402835291602001916102bb565b820191906000526020600020905b81548152906001019060200180831161029e57829003601f168201915b505050505081526020016003820154815260200160048201548152505081526020019060010190610127565b50505050905090565b600160009054906101000a900473ffffffffffffffffffffffffffffffffffffffff1673ffffffffffffffffffffffffffffffffffffffff163373ffffffffffffffffffffffffffffffffffffffff1614610380576040517f08c379a000000000000000000000000000000000000000000000000000000000815260040161037790610be0565b60405180910390fd5b600047116103c3576040517f08c379a00000000000000000000000000000000000000000000000000000000081526004016103ba90610c4c565b60405180910390fd5b6000600160009054906101000a900473ffffffffffffffffffffffffffffffffffffffff1673ffffffffffffffffffffffffffffffffffffffff164760405161040b90610c9d565b60006040518083038185875af1925050503d8060008114610448576040519150601f19603f3d011682016040523d82523d6000602084013e61044d565b606091505b5050905080610491576040517f08c379a000000000000000000000000000000000000000000000000000000000815260040161048890610cfe565b60405180910390fd5b7f513127da5c0be50bc9c6763cb35c374fb3aa664ff0a1fad404452ada92b59924476040516104c09190610b08565b60405180910390a150565b343373ffffffffffffffffffffffffffffffffffffffff16311015610525576040517f08c379a000000000000000000000000000000000000000000000000000000000815260040161051c90610d6a565b60405180910390fd5b60016000808282546105379190610db9565b9250508190555060026040518060a001604052803373ffffffffffffffffffffffffffffffffffffffff16815260200184815260200183815260200142815260200134815250908060018154018082558091505060019003906000526020600020906005020160009091909190915060008201518160000160006101000a81548173ffffffffffffffffffffffffffffffffffffffff021916908373ffffffffffffffffffffffffffffffffffffffff16021790555060208201518160010190816106029190610f99565b5060408201518160020190816106189190610f99565b50606082015181600301556080820151816004015550503373ffffffffffffffffffffffffffffffffffffffff167fb1c1391b0c6c1e7244a4134896b4bc3f12d2c0cdfef990fac76eec58980a8baa838334604051610679939291906110a4565b60405180910390a25050565b600160009054906101000a900473ffffffffffffffffffffffffffffffffffffffff1681565b60005481565b600081519050919050565b600082825260208201905092915050565b6000819050602082019050919050565b600073ffffffffffffffffffffffffffffffffffffffff82169050919050565b6000610708826106dd565b9050919050565b610718816106fd565b82525050565b600081519050919050565b600082825260208201905092915050565b60005b8381101561075857808201518184015260208101905061073d565b60008484015250505050565b6000601f19601f8301169050919050565b60006107808261071e565b61078a8185610729565b935061079a81856020860161073a565b6107a381610764565b840191505092915050565b6000819050919050565b6107c1816107ae565b82525050565b600060a0830160008301516107df600086018261070f565b50602083015184820360208601526107f78282610775565b915050604083015184820360408601526108118282610775565b915050606083015161082660608601826107b8565b50608083015161083960808601826107b8565b508091505092915050565b600061085083836107c7565b905092915050565b6000602082019050919050565b6000610870826106b1565b61087a81856106bc565b93508360208202850161088c856106cd565b8060005b858110156108c857848403895281516108a98582610844565b94506108b483610858565b925060208a01995050600181019050610890565b50829750879550505050505092915050565b600060208201905081810360008301526108f48184610865565b905092915050565b6000604051905090565b600080fd5b600080fd5b600080fd5b600080fd5b7f4e487b7100000000000000000000000000000000000000000000000000000000600052604160045260246000fd5b61095282610764565b810181811067ffffffffffffffff821117156109715761097061091a565b5b80604052505050565b60006109846108fc565b90506109908282610949565b919050565b600067ffffffffffffffff8211156109b0576109af61091a565b5b6109b982610764565b9050602081019050919050565b82818337600083830152505050565b60006109e86109e384610995565b61097a565b905082815260208101848484011115610a0457610a03610915565b5b610a0f8482856109c6565b509392505050565b600082601f830112610a2c57610a2b610910565b5b8135610a3c8482602086016109d5565b91505092915050565b60008060408385031215610a5c57610a5b610906565b5b600083013567ffffffffffffffff811115610a7a57610a7961090b565b5b610a8685828601610a17565b925050602083013567ffffffffffffffff811115610aa757610aa661090b565b5b610ab385828601610a17565b9150509250929050565b6000610ac8826106dd565b9050919050565b610ad881610abd565b82525050565b6000602082019050610af36000830184610acf565b92915050565b610b02816107ae565b82525050565b6000602082019050610b1d6000830184610af9565b92915050565b7f4e487b7100000000000000000000000000000000000000000000000000000000600052602260045260246000fd5b60006002820490506001821680610b6a57607f821691505b602082108103610b7d57610b7c610b23565b5b50919050565b600082825260208201905092915050565b7f596f7520617265206e6f7420746865206f776e65720000000000000000000000600082015250565b6000610bca601583610b83565b9150610bd582610b94565b602082019050919050565b60006020820190508181036000830152610bf981610bbd565b9050919050565b7f436f6e747261637420697320656d7074792066756e6473000000000000000000600082015250565b6000610c36601783610b83565b9150610c4182610c00565b602082019050919050565b60006020820190508181036000830152610c6581610c29565b9050919050565b600081905092915050565b50565b6000610c87600083610c6c565b9150610c9282610c77565b600082019050919050565b6000610ca882610c7a565b9150819050919050565b7f5769746864726177206661696c65640000000000000000000000000000000000600082015250565b6000610ce8600f83610b83565b9150610cf382610cb2565b602082019050919050565b60006020820190508181036000830152610d1781610cdb565b9050919050565b7f4e6f7420656e6f7567682066756e647300000000000000000000000000000000600082015250565b6000610d54601083610b83565b9150610d5f82610d1e565b602082019050919050565b60006020820190508181036000830152610d8381610d47565b9050919050565b7f4e487b7100000000000000000000000000000000000000000000000000000000600052601160045260246000fd5b6000610dc4826107ae565b9150610dcf836107ae565b9250828201905080821115610de757610de6610d8a565b5b92915050565b60008190508160005260206000209050919050565b60006020601f8301049050919050565b600082821b905092915050565b600060088302610e4f7fffffffffffffffffffffffffffffffffffffffffffffffffffffffffffffffff82610e12565b610e598683610e12565b95508019841693508086168417925050509392505050565b6000819050919050565b6000610e96610e91610e8c846107ae565b610e71565b6107ae565b9050919050565b6000819050919050565b610eb083610e7b565b610ec4610ebc82610e9d565b848454610e1f565b825550505050565b600090565b610ed9610ecc565b610ee4818484610ea7565b505050565b5b81811015610f0857610efd600082610ed1565b600181019050610eea565b5050565b601f821115610f4d57610f1e81610ded565b610f2784610e02565b81016020851015610f36578190505b610f4a610f4285610e02565b830182610ee9565b50505b505050565b600082821c905092915050565b6000610f7060001984600802610f52565b1980831691505092915050565b6000610f898383610f5f565b9150826002028217905092915050565b610fa28261071e565b67ffffffffffffffff811115610fbb57610fba61091a565b5b610fc58254610b52565b610fd0828285610f0c565b600060209050601f8311600181146110035760008415610ff1578287015190505b610ffb8582610f7d565b865550611063565b601f19841661101186610ded565b60005b8281101561103957848901518255600182019150602085019450602081019050611014565b868310156110565784890151611052601f891682610f5f565b8355505b6001600288020188555050505b505050505050565b60006110768261071e565b6110808185610b83565b935061109081856020860161073a565b61109981610764565b840191505092915050565b600060608201905081810360008301526110be818661106b565b905081810360208301526110d2818561106b565b90506110e16040830184610af9565b94935050505056fea264697066735822122005146e5af2f6f9e86ca2fee8f6774525816c36ffbc2483422303eb930f8dacb364736f6c63430008110033",
  "linkReferences": {},
  "deployedLinkReferences": {}
}